:100000000C9434000C9451000C9451000C94510049
:100010000C9451000C9451000C9451000C9451001C
:100020000C9451000C9451000C9451000C9451000C
:100030000C9451000C9451000C9451000C945100FC
:100040000C9427020C9451000C9451000C94510014
:100050000C9451000C9451000C9451000C945100DC
:100060000C9451000C94510011241FBECFEFD8E026
:10007000DEBFCDBF12E0A0E0B1E0EAE4F3E102C0F0
:1000800005900D92A034B107D9F717E0A0E4B2E0D3
:1000900001C01D92AB31B107E1F70E9453000C94EF
:1000A000A3090C9400000E9483080E94B90680E016
:1000B00090E060E070E00E94A60710924203109268
:1000C000410310924403109243031092450383E7C7
:1000D00090E060E070E045E454E021E00E94840597
:1000E0000E943706FFCF1F930E94730880E591E0BE
:1000F00060E070E040EC52E023E00E94840586EA74
:1001000090E060E070E045EC53E024E00E9484055C
:100110008CEF90E060E070E045EC54E025E00E9458
:10012000840588EB90E060E070E040E453E022E07A
:100130000E94840511E080E060E045E020E030E0CE
:100140000E94DB0385B1812785B9F5CF609141031A
:100150007091420380914303909144030E94A6074B
:1001600080E060E040E028EC30E00E94DB03EECF6E
:10017000CF92DF92EF92FF920F931F93CF93DF9373
:1001800094E6C92ED12C8AEBE82E8FEFF82E0E9430
:100190002F088C010E942B08EC0181E00039180720
:1001A0001CF181E0C039D807FCF00E944B08C01751
:1001B000D1074CF4F0924403E0924303D0924203FF
:1001C000C09241030BC00C171D070CF7D0924403DB
:1001D000C0924303F0924203E092410380E060E06A
:1001E00040E028E532E005C080E060E040E024E641
:1001F00030E00E94DB03CBCFEF92FF920F931F936F
:10020000CF93DF93C4E6D0E02CE9E22E2FEFF22E5D
:1002100002E310E00E9404089C01809145038130B4
:1002200081F4F0924203E0924103F0924403E092A1
:10023000430380E060E042E020E030E00E94DB0326
:1002400010C0C9014E970A9748F4109344030093D5
:10025000430310934203009341031AC02E3131052A
:100260007CF4F0924203E092410310934403009324
:10027000430380E060E040E02CEB32E00E94DB03CF
:10028000D0934203C0934103D0934403C0934303EC
:1002900080E060E040E024EF31E00E94DB03BACF71
:1002A0001F9311E00E943308019721F00E943F083C
:1002B000019719F41093450302C01092450380E0A2
:1002C00060E040E024E630E00E94DB03EBCF0091E9
:1002D000C70403950093C704E0915C05F0915D05A8
:1002E000C191CDBFD191DEBF0F910FBFFF91EF91B3
:1002F000DF91CF91BF91AF919F918F917F916F913E
:100300005F914F913F912F911F910F91FF90EF902F
:10031000DF90CF90BF90AF909F908F907F906F9025
:100320005F904F903F902F901F900F9008950F92E5
:100330001F922F923F924F925F926F927F928F9275
:100340009F92AF92BF92CF92DF92EF92FF920F9364
:100350001F932F933F934F935F936F937F938F934D
:100360009F93AF93BF93CF93DF93EF93FF930FB719
:100370000F93E0916405F0916505CDB7C193DEB7A9
:10038000D1930091CC040093CD04E0915C05F091F1
:100390005D05E0936405F0936505C191CDBFD191F2
:1003A000DEBF0F910FBFFF91EF91DF91CF91BF9112
:1003B000AF919F918F917F916F915F914F913F91FD
:1003C0002F911F910F91FF90EF90DF90CF90BF90F2
:1003D000AF909F908F907F906F905F904F903F90E5
:1003E0002F901F900F9008950091CC040093CD049E
:1003F000E0915C05F0915D05E0936405F09365057F
:10040000C191CDBFD191DEBF0F910FBFFF91EF9191
:10041000DF91CF91BF91AF919F918F917F916F911C
:100420005F914F913F912F911F910F91FF90EF900E
:10043000DF90CF90BF90AF909F908F907F906F9004
:100440005F904F903F902F901F900F9008950F92C4
:100450001F922F923F924F925F926F927F928F9254
:100460009F92AF92BF92CF92DF92EF92FF920F9343
:100470001F932F933F934F935F936F937F938F932C
:100480009F93AF93BF93CF93DF93EF93FF930FB7F8
:1004900000680F9300916305039500936305013095
:1004A00041F4CDB7DEB7E0916405F0916505C193E5
:1004B000D19304E606BDF0E01F2E78940E94F20569
:1004C00000000E9464060F910FBFFF91EF91DF9132
:1004D000CF91BF91AF919F918F917F916F915F91DC
:1004E0004F913F912F911F910F91FF90EF90DF90CF
:1004F000CF90BF90AF909F908F907F906F905F90C4
:100500004F903F902F901F900F900895FA01808395
:10051000929312921292129212921292129212923A
:1005200012921292129212921292129212921292AB
:10053000129212921292129212921292129212929B
:1005400012926293729312921292129212921292D9
:10055000129280E882933197CF010895089508950B
:10056000089508950895089508950895089580912F
:10057000C704813039F4809163058F3F19F08F5F94
:100580008093630508958091C704813049F4F894FD
:100590008091C6048F3F19F08F5F8093C6047894D2
:1005A00008958CEF90E0089508958F3F41F4F894FA
:1005B000E0916405F0916505868578940895F89436
:1005C000E82FF0E0EE0FFF1FEB50F94F0190F081A4
:1005D000E02D309711F48BE003C08EE3868780E036
:1005E000789408951F93CF93DF93182FF894C091B8
:1005F0005805D0915905209709F450C08A819B81F4
:100600009093590580935805789479836883198766
:1006100018861F821E821E86E12FE695E695E695D6
:10062000EB87F0E0E050FF4F80818D87E12FE7708E
:10063000EA87F0E0E050FF4F80818C87CE010E9476
:10064000B602CE010E94AE02F894E12FF0E0EE0F68
:10065000FF1FEB50F94FD183C083E091CE04F0919E
:10066000CF04FB83EA831D821C82309711F0D5836F
:10067000C483D093CF04C093CE0480915E059D8542
:10068000892B80935E05EB85F0E0E15AFA4F80817B
:100690009C85892B8083789480E002C0789486E4DE
:1006A000DF91CF911F910895F8948091C8049091A3
:1006B000C904A091CA04B091CB040196A11DB11D3B
:1006C0008093C8049093C904A093CA04B093CB0448
:1006D00078940E94B502E8CFF8948091630588234E
:1006E00009F03FC08091C6048823D9F5E0915E05EA
:1006F000F0E0E85FFE4F8081E82FF0E0E15AFA4F2A
:10070000E081F0E0E85FFE4F982F990F990F990F65
:100710008081980F9093CC048091CD04981709F1B3
:10072000E92FF0E0EE0FFF1FEB50F94F8081918130
:1007300090935D0580935C058091500590915105E3
:10074000A0915205B09153050196A11DB11D809352
:10075000500590935105A0935205B09353050E9404
:100760009701789408959C01009721F1F894A09145
:100770006405B09165051B96EC911B97F0E0E15A7A
:10078000FA4F1C968C911C978095908189238083C9
:10079000882349F41D969C911D97909580915E0544
:1007A000892380935E0517963C932E931697789431
:1007B0000E946C0308958F929F92AF92BF92CF9246
:1007C000DF92EF92FF920F931F93CF93DF93882EC8
:1007D000162F942E882349F4662339F4442349F4D0
:1007E0002115310559F484E56AC01C3310F081E508
:1007F00066C08BE3891510F482E561C093E0283E62
:10080000390710F083E55BC0B90180E090E024E691
:1008100030E040E050E00E943B096C507E4F8F4F2B
:100820009F4F28EE33E040E050E00E9481095901DB
:100830006A01612F70E080E090E02CE330E040E05E
:1008400050E00E943B097B018C01E90CF11C011D69
:10085000111D682D70E080E090E020E13EE040E076
:1008600050E00E943B09E60EF71E081F191FC80141
:10087000B70124E630E040E050E00E943B09A60EBC
:10088000B71EC81ED91EC601AA27BB27EC018FEFD1
:100890009FEFA0E0B0E0A822B922CA22DB22C50166
:1008A0000E94B30309C080E090E80E94B30380E097
:1008B00090E80E94B30321972097A9F780E0DF9189
:1008C000CF911F910F91FF90EF90DF90CF90BF904D
:1008D000AF909F908F900895DF92EF92FF920F93C9
:1008E0001F9304C088EC90E00E94B3038091F4064B
:1008F0008823C1F360915405709155058091560588
:100900009091570524E630E040E050E00E948109D4
:10091000C901DA017C018D0144E6D42EF89480915E
:10092000C8049091C904A091CA04B091CB048093EB
:10093000170790931807A0931907B0931A076091AF
:10094000C8047091C9048091CA049091CB0410929C
:10095000C8041092C9041092CA041092CB0478946F
:10096000E114F1040105110571F0A80197010E943D
:1009700081098D2D821B87FD03C080935A0517C006
:1009800010925A0514C010925A0560915405709146
:100990005505809156059091570524E630E040E0DA
:1009A00050E00E948109C901DA017C018D010E9499
:1009B000B10284E690E00E94B303B0CF82E090E001
:1009C0000E94B303F8941092C8041092C9041092C4
:1009D000CA041092CB04789484E690E00E94B3039A
:1009E000F8948091C8049091C904A091CA04B09170
:1009F000CB048093540590935505A0935605B0936E
:100A0000570581E08093F406789408950F931F931F
:100A1000CF93DF93E82F80916305882311F08FE354
:100A20006EC0F894EF3F29F4E0916405F0916505FC
:100A3000E1850E2F10E0F801EE0FFF1FEB50F94F8C
:100A4000C081D181209709F458C0EB85F0E0E15ACC
:100A5000FA4F8C858095908189238083882339F48F
:100A60009D85909580915E05892380935E051F8208
:100A70001E8218868091C6048F3F19F08F5F809385
:100A8000C6047894F8948091C604882319F08150A4
:100A90008093C604CE010E94AF0280915B05815015
:100AA00080935B05000F111F0B50194FF801118245
:100AB0001082AC81BD81EA81FB81109739F41582E7
:100AC0001482F093CF04E093CE0408C01396FC93F5
:100AD000EE931297EA81FB81B583A4838091580538
:100AE000909159059B838A83D0935905C0935805EB
:100AF00078940E946C0380E002C078948CE3DF91CC
:100B0000CF911F910F910895AF92BF92CF92DF9234
:100B1000EF92FF920F931F93CF93DF93FC01122F5D
:100B2000F894C22FD0E0CC0FDD1FCB50D94F888175
:100B30009981892B79F581E090E099838883789475
:100B4000CF0120E030E00E948602BC01812F40E00E
:100B500050E020E030E0EE24FF248701CC24DD24A7
:100B6000AA24BB240E94F202182F882371F4F8945F
:100B700080915B058F5F80935B0578948091C704BB
:100B8000813051F40E946C0307C0F89419821882D6
:100B9000789402C0789418E2812FDF91CF911F9151
:100BA0000F91FF90EF90DF90CF90BF90AF9008959E
:100BB0008091C7048130A9F4F8948091C6048823F9
:100BC00079F081508093C604882341F480916305B5
:100BD000882321F478940E946C03089578940895F2
:100BE000789408950E94B2028091C704813009F080
:100BF0003DC0A091CE04B091CF0420915E0541E0AC
:100C000050E02DC0F89416968D919C9117970097FF
:100C100009F1019717969C938E931697892BD1F41F
:100C200018968C91189783FD11C01D968C911D9775
:100C3000282B1B96EC911B97F0E0E15AFA4F80812C
:100C40001C969C911C97892B808304C017965C93FB
:100C50004E93169712960D90BC91A02D78941996EC
:100C60008C911997803171F620935E0508958091DB
:100C7000C704882341F5E0915E05F0E0E85FFE4F90
:100C8000A081EA2FF0E0E15AFA4FE081F0E0E85F5E
:100C9000FE4FAA0FAA0FAA0F8081A80FA093CC0421
:100CA000A093CD04B0E0AA0FBB1FAB50B94F8D91FC
:100CB0009C9190935D0580935C059093650580936E
:100CC00064050E94670108958091C704813009F08E
:100CD0004FC0F89480916305882319F08150809368
:100CE000630580916305882309F041C08091C604A3
:100CF0008823E9F5E0915E05F0E0E85FFE4F808132
:100D000080936205E82FF0E0E15AFA4FE081F0E0CD
:100D1000E85FFE4F982F990F990F990F8081980FD8
:100D20009093CC048091CD04981709F1E92FF0E05D
:100D3000EE0FFF1FEB50F94F8081918190935D057D
:100D400080935C058091500590915105A0915205CA
:100D5000B09153050196A11DB11D8093500590934C
:100D60005105A0935205B09353050E94F401789465
:100D700008950E94B302109263051092C604109267
:100D80005B051092C7041092500510925105109205
:100D90005205109253051092C8041092C904109283
:100DA000CA041092CB0410925E0510925F05109257
:100DB0006005109261051092CD041092CC0410923F
:100DC0005D0510925C051092650510926405109205
:100DD000CF041092CE04E5EFF6E01192119227E0D5
:100DE000E731F207D1F785EF95E0FC013D9791835C
:100DF00080830F9626E0843F9207B9F71092E806A9
:100E00001092E70686EE95E0909359058093580579
:100E100084E593E060E070E045EE55E020E10E945B
:100E200084058CE694E060E070E04FE455E02FE04C
:100E30000E9484050E94B402089580E480937C009F
:100E400086E880937A000895806480937C00809186
:100E50007A00806480937A0080917A0084FFFCCFCE
:100E600080917A00806180937A00809178009091DF
:100E70007900937008950E94240727E230E0AC01C6
:100E8000429FC001439F900D529F900D112423E07B
:100E9000969587952A95E1F70895882329F470930C
:100EA000890060938800089570938B0060938A0096
:100EB00008958AB1806F8AB98BB18F708BB981EA3E
:100EC0008093800083E080938100109285001092CF
:100ED0008400109289001092880010928B0010926A
:100EE0008A0084B1866084B980E060E070E00E948E
:100EF0004D0781E060E070E00E944D07089588236F
:100F000041F4662319F45E985F9A08955E9A5F989B
:100F10000895662319F45C9A5D9808955C985D9A2B
:100F200008956536710514F064E670E09B0135950F
:100F30002795660F771F260F371F882311F481E04E
:100F400001C080E0B9010E944D0708950F931F93DF
:100F5000CF93DF938C01EB0197FF08C081E061E044
:100F60000E947F07109501951F4F04C081E060E04B
:100F70000E947F07D7FF08C080E061E00E947F07E2
:100F8000D095C195DF4F04C080E060E00E947F07EC
:100F900080E0BE010E94910781E0B8010E949107A4
:100FA000DF91CF911F910F9108958093C40010920B
:100FB000C5001092C00088E18093C10086E0809354
:100FC000C2000895982F8091C00085FFFCCF9093B8
:100FD000C60008951F938091C00087FFFCCF109139
:100FE000C600812F0E94E207812F1F910895CF93A1
:100FF000DF93EC0103C00E94E207219688818823D9
:10100000D1F7DF91CF9108950F931F9384E00E9451
:101010003B078C0184E00E943B07800F911F64E135
:1010200070E00E946E09E8E0F2E020E080819181AA
:101030006817790728F0822F880F8C5F41F404C06D
:101040002F5F3296233191F7822F880F8E5F90E0C9
:101050001F910F91089581E00E942407089580E078
:101060000E942407089583B190E064E096958795E7
:101070006A95E1F78095909581709070089583B19D
:1010800090E073E0969587957A95E1F78095909535
:101090008170907008955B9A88EB9BE0E0E9F1E045
:1010A0003197F1F70197D1F75B9888EB9BE0E0E986
:1010B000F1E03197F1F70197D1F7089585E00E94AB
:1010C0002407845F914010F4289A08952898089581
:1010D00089B1869586958095817008950E946808EB
:1010E0008823E1F30895F89485E085BD81E080933D
:1010F0006E0084E686BD7894089587E60E94D50741
:101100000E941D0708950E947D080E945907539A66
:101110005B98209A52985A9A2498239885B18861AE
:1011200085B980E060E00E947F0781E060E00E9476
:101130007F0780E090E060E070E00E94A6070895DD
:101140008F929F92AF92BF92CF92DF92EF92FF92D7
:101150000F931F93DF93CF93CDB7DEB71FE0E12E40
:10116000F12CEC0EFD1EF701A190B1907F0113C090
:10117000882379F480E090E0CF91DF911F910F9167
:10118000FF90EF90DF90CF90BF90AF909F908F90A7
:1011900008950E94E207F50181915F01853241F7D0
:1011A00081915F01843651F085361CF4833689F7CE
:1011B0000BC0833781F0883761F71FC000E117E269
:1011C000BAE0CB2ED12C1EC0F701808122E030E0A6
:1011D000E20EF31EDECFA2E0CA2ED12CCE0CDF1C15
:1011E000F7010081118102C00E94E207F80181919C
:1011F0008F018823C9F77601CECF00E010E1F0E13E
:10120000CF2ED12CE2E08E2E912C8E0C9F1CF7015C
:10121000E080F1808436B1F4F7FE11C0F094E194DF
:10122000F108F3948DE20E94E20709C0C8016AE068
:1012300070E00E945A098B016230710518F0E016C7
:10124000F106A0F3C701B8010E945A09FB01E25D53
:10125000FD4F80810E94E207C701B8010E945A0930
:101260007C01C801B6010E945A098B016115710504
:1012700049F7740190CF629FD001739FF001829F64
:10128000E00DF11D649FE00DF11D929FF00D839F15
:10129000F00D749FF00D659FF00D9927729FB00DB2
:1012A000E11DF91F639FB00DE11DF91FBD01CF01C5
:1012B00011240895AA1BBB1B51E107C0AA1FBB1F25
:1012C000A617B70710F0A61BB70B881F991F5A95D2
:1012D000A9F780959095BC01CD01089597FB092E43
:1012E00007260AD077FD04D0E5DF06D000201AF4E7
:1012F000709561957F4F0895F6F7909581959F4F72
:101300000895A1E21A2EAA1BBB1BFD010DC0AA1F46
:10131000BB1FEE1FFF1FA217B307E407F50720F05E
:10132000A21BB30BE40BF50B661F771F881F991FD9
:101330001A9469F760957095809590959B01AC0122
:0A134000BD01CF010895F894FFCF1E
:10134A000102040810204080000001000200010090
:10135A000300010002000100040001000200010074
:10136A000300010002000100050001000200010063
:10137A000300010002000100040001000200010054
:10138A000300010002000100060001000200010042
:10139A000300010002000100040001000200010034
:1013AA000300010002000100050001000200010023
:1013BA000300010002000100040001000200010014
:1013CA000300010002000100070001000200010001
:1013DA0003000100020001000400010002000100F4
:1013EA0003000100020001000500010002000100E3
:1013FA0003000100020001000400010002000100D4
:10140A0003000100020001000600010002000100C1
:10141A0003000100020001000400010002000100B3
:10142A0003000100020001000500010002000100A2
:10143A000300010002000100040001000200010093
:10144A0003000100020001000E01E600AC00870063
:10145A006E005C00500046003C00370032002B0052
:10146A002800240021001E001C001900170030313A
:10147A003233343536373839414243444546000021
:00000001FF
